{
    "_format": "hh-sol-artifact-1",
    "contractName": "MedicalData",
    "sourceName": "contracts/MedicalData.sol",
    "abi": [
        {
            "inputs": [],
            "stateMutability": "payable",
            "type": "constructor"
        },
        {
            "inputs": [
                {
                    "internalType": "string",
                    "name": "patientId",
                    "type": "string"
                },
                {
                    "internalType": "string",
                    "name": "encryptedData",
                    "type": "string"
                }
            ],
            "name": "addPatientData",
            "outputs": [],
            "stateMutability": "payable",
            "type": "function"
        },
        {
            "inputs": [],
            "name": "contractOwner",
            "outputs": [
                {
                    "internalType": "address",
                    "name": "",
                    "type": "address"
                }
            ],
            "stateMutability": "view",
            "type": "function"
        },
        {
            "inputs": [
                {
                    "internalType": "string",
                    "name": "patientId",
                    "type": "string"
                }
            ],
            "name": "getPatientData",
            "outputs": [
                {
                    "components": [
                        {
                            "internalType": "string",
                            "name": "encryptedData",
                            "type": "string"
                        },
                        {
                            "internalType": "uint256",
                            "name": "timestamp",
                            "type": "uint256"
                        }
                    ],
                    "internalType": "struct MedicalData.PatientData[]",
                    "name": "",
                    "type": "tuple[]"
                }
            ],
            "stateMutability": "view",
            "type": "function"
        }
    ],
    "bytecode": "0x6080604052336000806101000a81548173ffffffffffffffffffffffffffffffffffffffff021916908373ffffffffffffffffffffffffffffffffffffffff160217905550610b3a806100536000396000f3fe6080604052600436106100345760003560e01c8063a30ab5dc14610039578063ce606ee014610055578063dfbb8fda14610080575b600080fd5b610053600480360381019061004e9190610480565b6100bd565b005b34801561006157600080fd5b5061006a6101e9565b6040516100779190610539565b60405180910390f35b34801561008c57600080fd5b506100a760048036038101906100a29190610554565b61020d565b6040516100b49190610734565b60405180910390f35b60003411610100576040517f08c379a00000000000000000000000000000000000000000000000000000000081526004016100f7906107b3565b60405180910390fd5b60008054906101000a900473ffffffffffffffffffffffffffffffffffffffff1673ffffffffffffffffffffffffffffffffffffffff166108fc349081150290604051600060405180830381858888f19350505050158015610166573d6000803e3d6000fd5b50600182604051610177919061080f565b9081526020016040518091039020604051806040016040528083815260200142815250908060018154018082558091505060019003906000526020600020906002020160009091909190915060008201518160000190816101d89190610a32565b506020820151816001015550505050565b60008054906101000a900473ffffffffffffffffffffffffffffffffffffffff1681565b606060018260405161021f919061080f565b9081526020016040518091039020805480602002602001604051908101604052809291908181526020016000905b8282101561031b578382906000526020600020906002020160405180604001604052908160008201805461028090610855565b80601f01602080910402602001604051908101604052809291908181526020018280546102ac90610855565b80156102f95780601f106102ce576101008083540402835291602001916102f9565b820191906000526020600020905b8154815290600101906020018083116102dc57829003601f168201915b505050505081526020016001820154815250508152602001906001019061024d565b505050509050919050565b6000604051905090565b600080fd5b600080fd5b600080fd5b600080fd5b6000601f19601f8301169050919050565b7f4e487b7100000000000000000000000000000000000000000000000000000000600052604160045260246000fd5b61038d82610344565b810181811067ffffffffffffffff821117156103ac576103ab610355565b5b80604052505050565b60006103bf610326565b90506103cb8282610384565b919050565b600067ffffffffffffffff8211156103eb576103ea610355565b5b6103f482610344565b9050602081019050919050565b82818337600083830152505050565b600061042361041e846103d0565b6103b5565b90508281526020810184848401111561043f5761043e61033f565b5b61044a848285610401565b509392505050565b600082601f8301126104675761046661033a565b5b8135610477848260208601610410565b91505092915050565b6000806040838503121561049757610496610330565b5b600083013567ffffffffffffffff8111156104b5576104b4610335565b5b6104c185828601610452565b925050602083013567ffffffffffffffff8111156104e2576104e1610335565b5b6104ee85828601610452565b9150509250929050565b600073ffffffffffffffffffffffffffffffffffffffff82169050919050565b6000610523826104f8565b9050919050565b61053381610518565b82525050565b600060208201905061054e600083018461052a565b92915050565b60006020828403121561056a57610569610330565b5b600082013567ffffffffffffffff81111561058857610587610335565b5b61059484828501610452565b91505092915050565b600081519050919050565b600082825260208201905092915050565b6000819050602082019050919050565b600081519050919050565b600082825260208201905092915050565b60005b838110156106035780820151818401526020810190506105e8565b60008484015250505050565b600061061a826105c9565b61062481856105d4565b93506106348185602086016105e5565b61063d81610344565b840191505092915050565b6000819050919050565b61065b81610648565b82525050565b6000604083016000830151848203600086015261067e828261060f565b91505060208301516106936020860182610652565b508091505092915050565b60006106aa8383610661565b905092915050565b6000602082019050919050565b60006106ca8261059d565b6106d481856105a8565b9350836020820285016106e6856105b9565b8060005b858110156107225784840389528151610703858261069e565b945061070e836106b2565b925060208a019950506001810190506106ea565b50829750879550505050505092915050565b6000602082019050818103600083015261074e81846106bf565b905092915050565b600082825260208201905092915050565b7f506c6561736520706179206d6f7265207468616e203020657468657200000000600082015250565b600061079d601c83610756565b91506107a882610767565b602082019050919050565b600060208201905081810360008301526107cc81610790565b9050919050565b600081905092915050565b60006107e9826105c9565b6107f381856107d3565b93506108038185602086016105e5565b80840191505092915050565b600061081b82846107de565b915081905092915050565b7f4e487b7100000000000000000000000000000000000000000000000000000000600052602260045260246000fd5b6000600282049050600182168061086d57607f821691505b6020821081036108805761087f610826565b5b50919050565b60008190508160005260206000209050919050565b60006020601f8301049050919050565b600082821b905092915050565b6000600883026108e87fffffffffffffffffffffffffffffffffffffffffffffffffffffffffffffffff826108ab565b6108f286836108ab565b95508019841693508086168417925050509392505050565b6000819050919050565b600061092f61092a61092584610648565b61090a565b610648565b9050919050565b6000819050919050565b61094983610914565b61095d61095582610936565b8484546108b8565b825550505050565b600090565b610972610965565b61097d818484610940565b505050565b5b818110156109a15761099660008261096a565b600181019050610983565b5050565b601f8211156109e6576109b781610886565b6109c08461089b565b810160208510156109cf578190505b6109e36109db8561089b565b830182610982565b50505b505050565b600082821c905092915050565b6000610a09600019846008026109eb565b1980831691505092915050565b6000610a2283836109f8565b9150826002028217905092915050565b610a3b826105c9565b67ffffffffffffffff811115610a5457610a53610355565b5b610a5e8254610855565b610a698282856109a5565b600060209050601f831160018114610a9c5760008415610a8a578287015190505b610a948582610a16565b865550610afc565b601f198416610aaa86610886565b60005b82811015610ad257848901518255600182019150602085019450602081019050610aad565b86831015610aef5784890151610aeb601f8916826109f8565b8355505b6001600288020188555050505b50505050505056fea2646970667358221220a9abb51715d4c39a495536caa64ec2e36ddc2da7b35254d3a0e01f68bc050c1a64736f6c63430008180033",
    "linkReferences": {},
    "deployedLinkReferences": {}
}